{"abi":[{"type":"function","name":"actualizarNombre","inputs":[{"name":"nuevoNombre","type":"string","internalType":"string"}],"outputs":[],"stateMutability":"nonpayable"},{"type":"function","name":"asignarEdad","inputs":[{"name":"unaAddress","type":"address","internalType":"address"},{"name":"unaEdad","type":"uint256","internalType":"uint256"}],"outputs":[],"stateMutability":"nonpayable"},{"type":"function","name":"asignarMiEdad","inputs":[{"name":"unaEdad","type":"uint256","internalType":"uint256"}],"outputs":[],"stateMutability":"nonpayable"},{"type":"function","name":"duplicar","inputs":[{"name":"unNumero","type":"uint256","internalType":"uint256"}],"outputs":[{"name":"","type":"uint256","internalType":"uint256"}],"stateMutability":"pure"},{"type":"function","name":"fechaActual","inputs":[],"outputs":[{"name":"","type":"uint256","internalType":"uint256"}],"stateMutability":"view"},{"type":"function","name":"nombre","inputs":[],"outputs":[{"name":"","type":"string","internalType":"string"}],"stateMutability":"view"},{"type":"function","name":"obtenerEdad","inputs":[{"name":"unaAddress","type":"address","internalType":"address"}],"outputs":[{"name":"","type":"uint256","internalType":"uint256"}],"stateMutability":"view"}],"bytecode":{"object":"0x60c0604052600b60809081526a4d6920526567697374726f60a81b60a05260009061002a9082610114565b504360035542600481905561004290620151806101d2565b61004e90610e106101d2565b600555600680546001600160a01b0319163317905534801561006f57600080fd5b506101f9565b634e487b7160e01b600052604160045260246000fd5b600181811c9082168061009f57607f821691505b6020821081036100bf57634e487b7160e01b600052602260045260246000fd5b50919050565b601f82111561010f57806000526020600020601f840160051c810160208510156100ec5750805b601f840160051c820191505b8181101561010c57600081556001016100f8565b50505b505050565b81516001600160401b0381111561012d5761012d610075565b6101418161013b845461008b565b846100c5565b6020601f821160018114610175576000831561015d5750848201515b600019600385901b1c1916600184901b17845561010c565b600084815260208120601f198516915b828110156101a55787850151825560209485019460019092019101610185565b50848210156101c35786840151600019600387901b60f8161c191681555b50505050600190811b01905550565b808201808211156101f357634e487b7160e01b600052601160045260246000fd5b92915050565b61053d806102086000396000f3fe608060405234801561001057600080fd5b506004361061007d5760003560e01c80637e277c501161005b5780637e277c50146100e15780638cf8e8c114610107578063aefd25a014610130578063bc7b35b21461013657600080fd5b806322f3f36b146100825780633d291883146100ae57806347984141146100ce575b600080fd5b6100ac610090366004610218565b6001600160a01b03909116600090815260076020526040902055565b005b6100ac6100bc366004610242565b33600090815260076020526040902055565b6100ac6100dc366004610271565b61014b565b6100f46100ef366004610242565b61015b565b6040519081526020015b60405180910390f35b6100f461011536600461032a565b6001600160a01b031660009081526007602052604090205490565b426100f4565b61013e61016e565b6040516100fe919061034c565b60006101578282610423565b5050565b60006101688260026104e2565b92915050565b6000805461017b9061039a565b80601f01602080910402602001604051908101604052809291908181526020018280546101a79061039a565b80156101f45780601f106101c9576101008083540402835291602001916101f4565b820191906000526020600020905b8154815290600101906020018083116101d757829003601f168201915b505050505081565b80356001600160a01b038116811461021357600080fd5b919050565b6000806040838503121561022b57600080fd5b610234836101fc565b946020939093013593505050565b60006020828403121561025457600080fd5b5035919050565b634e487b7160e01b600052604160045260246000fd5b60006020828403121561028357600080fd5b813567ffffffffffffffff81111561029a57600080fd5b8201601f810184136102ab57600080fd5b803567ffffffffffffffff8111156102c5576102c561025b565b604051601f8201601f19908116603f0116810167ffffffffffffffff811182821017156102f4576102f461025b565b60405281815282820160200186101561030c57600080fd5b81602084016020830137600091810160200191909152949350505050565b60006020828403121561033c57600080fd5b610345826101fc565b9392505050565b602081526000825180602084015260005b8181101561037a576020818601810151604086840101520161035d565b506000604082850101526040601f19601f83011684010191505092915050565b600181811c908216806103ae57607f821691505b6020821081036103ce57634e487b7160e01b600052602260045260246000fd5b50919050565b601f82111561041e57806000526020600020601f840160051c810160208510156103fb5750805b601f840160051c820191505b8181101561041b5760008155600101610407565b50505b505050565b815167ffffffffffffffff81111561043d5761043d61025b565b6104518161044b845461039a565b846103d4565b6020601f821160018114610485576000831561046d5750848201515b600019600385901b1c1916600184901b17845561041b565b600084815260208120601f198516915b828110156104b55787850151825560209485019460019092019101610495565b50848210156104d35786840151600019600387901b60f8161c191681555b50505050600190811b01905550565b808202811582820484141761016857634e487b7160e01b600052601160045260246000fdfea2646970667358221220a152a8843bb7ab8e305dc58aec1cd8dd2389c1a663c5dbd8473fd26bf6a0028a64736f6c634300081a0033","linkReferences":{}},"methodIdentifiers":{"actualizarNombre(string)":"47984141","asignarEdad(address,uint256)":"22f3f36b","asignarMiEdad(uint256)":"3d291883","duplicar(uint256)":"7e277c50","fechaActual()":"aefd25a0","nombre()":"bc7b35b2","obtenerEdad(address)":"8cf8e8c1"},"id":0}