{"abi":[{"type":"constructor","inputs":[{"name":"_owner","type":"address","internalType":"address"}],"stateMutability":"nonpayable"},{"type":"function","name":"deposit","inputs":[{"name":"amount","type":"uint256","internalType":"uint256"}],"outputs":[],"stateMutability":"payable"},{"type":"function","name":"owner","inputs":[],"outputs":[{"name":"","type":"address","internalType":"address"}],"stateMutability":"view"},{"type":"function","name":"withdraw","inputs":[],"outputs":[],"stateMutability":"nonpayable"},{"type":"event","name":"Deposit","inputs":[{"name":"sender","type":"address","indexed":false,"internalType":"address"},{"name":"amount","type":"uint256","indexed":false,"internalType":"uint256"}],"anonymous":false},{"type":"event","name":"Withdraw","inputs":[{"name":"owner","type":"address","indexed":false,"internalType":"address"},{"name":"amount","type":"uint256","indexed":false,"internalType":"uint256"}],"anonymous":false},{"type":"error","name":"NotOwner","inputs":[]},{"type":"error","name":"ZeroDeposit","inputs":[]}],"bytecode":{"object":"0x6080604052348015600f57600080fd5b506040516102f63803806102f6833981016040819052602c916050565b600080546001600160a01b0319166001600160a01b0392909216919091179055607e565b600060208284031215606157600080fd5b81516001600160a01b0381168114607757600080fd5b9392505050565b6102698061008d6000396000f3fe6080604052600436106100345760003560e01c80633ccfd60b146100395780638da5cb5b14610050578063b6b55f251461008c575b600080fd5b34801561004557600080fd5b5061004e61009f565b005b34801561005c57600080fd5b50600054610070906001600160a01b031681565b6040516001600160a01b03909116815260200160405180910390f35b61004e61009a36600461021a565b610173565b6000546001600160a01b031633146100ca576040516330cd747160e01b815260040160405180910390fd5b6000805460405147929182916001600160a01b039091169084908381818185875af1925050503d806000811461011c576040519150601f19603f3d011682016040523d82523d6000602084013e610121565b606091505b50600054604080516001600160a01b039092168252602082018790529294509092507f884edad9ce6fa2440d8a54cc123490eb96d2768479d49ff9c7366125a9424364910160405180910390a1505050565b3481146101be5760405162461bcd60e51b815260206004820152601560248201527443616e74696461646573206469666572656e74657360581b604482015260640160405180910390fd5b346000036101df576040516356316e8760e01b815260040160405180910390fd5b604080513381523460208201527fe1fffcc4923d04b559f4d29a8bfc6cda04eb5b0d3c460751c2402c5c5cc9109c910160405180910390a150565b60006020828403121561022c57600080fd5b503591905056fea264697066735822122027f58963e3aa373c8ffe58ca8a265ae0412cd9ac1b1494ab811f0363dd1eebcb64736f6c634300081a0033","linkReferences":{}},"methodIdentifiers":{"deposit(uint256)":"b6b55f25","owner()":"8da5cb5b","withdraw()":"3ccfd60b"},"id":2}