{
	"data": {
		"bytecode": {
			"linkReferences": {},
			"object": "60a0604052348015600e575f80fd5b506040516105303803806105308339818101604052810190602e9190606d565b8060808181525050506093565b5f80fd5b5f819050919050565b604f81603f565b81146058575f80fd5b50565b5f815190506067816048565b92915050565b5f60208284031215607f57607e603b565b5b5f608a84828501605b565b91505092915050565b6080516104776100b95f395f818161018b015281816101d601526101ff01526104775ff3fe60806040526004361061004d575f3560e01c80633d922f90146100585780638e6b3a7b14610062578063c9ec5ff61461008c578063d4ea7fa2146100c8578063db873a64146100f257610054565b3661005457005b5f80fd5b6100606100fc565b005b34801561006d575f80fd5b50610076610189565b60405161008391906102bd565b60405180910390f35b348015610097575f80fd5b506100b260048036038101906100ad9190610334565b6101ad565b6040516100bf91906102bd565b60405180910390f35b3480156100d3575f80fd5b506100dc6101cd565b6040516100e991906102bd565b60405180910390f35b6100fa6101d4565b005b7f453529dac6ef979a41d67fbeeabdfae29903c185f64d77aa690df9eca5f1aa60333460405161012d92919061036e565b60405180910390a1345f803373ffffffffffffffffffffffffffffffffffffffff1673ffffffffffffffffffffffffffffffffffffffff1681526020019081526020015f205f82825461018091906103c2565b92505081905550565b7f000000000000000000000000000000000000000000000000000000000000000081565b5f8173ffffffffffffffffffffffffffffffffffffffff16319050919050565b5f47905090565b7f000000000000000000000000000000000000000000000000000000000000000034101561026457347f000000000000000000000000000000000000000000000000000000000000000061022891906103f5565b6040517f46e7d3b400000000000000000000000000000000000000000000000000000000815260040161025b91906102bd565b60405180910390fd5b61026c6100fc565b7fd634350698edfd8f4c073cd4f18000b446026398544cb9bcd0c5a1827bcf6c043360405161029b9190610428565b60405180910390a1565b5f819050919050565b6102b7816102a5565b82525050565b5f6020820190506102d05f8301846102ae565b92915050565b5f80fd5b5f73ffffffffffffffffffffffffffffffffffffffff82169050919050565b5f610303826102da565b9050919050565b610313816102f9565b811461031d575f80fd5b50565b5f8135905061032e8161030a565b92915050565b5f60208284031215610349576103486102d6565b5b5f61035684828501610320565b91505092915050565b610368816102f9565b82525050565b5f6040820190506103815f83018561035f565b61038e60208301846102ae565b9392505050565b7f4e487b71000000000000000000000000000000000000000000000000000000005f52601160045260245ffd5b5f6103cc826102a5565b91506103d7836102a5565b92508282019050808211156103ef576103ee610395565b5b92915050565b5f6103ff826102a5565b915061040a836102a5565b925082820390508181111561042257610421610395565b5b92915050565b5f60208201905061043b5f83018461035f565b9291505056fea2646970667358221220358ca582d390e73f45bf6b9760a6dfc2228c07f24450326fdadbe8cee6d3806464736f6c634300081a0033",
			"opcodes": "PUSH1 0xA0 PUSH1 0x40 MSTORE CALLVALUE DUP1 ISZERO PUSH1 0xE JUMPI PUSH0 DUP1 REVERT JUMPDEST POP PUSH1 0x40 MLOAD PUSH2 0x530 CODESIZE SUB DUP1 PUSH2 0x530 DUP4 CODECOPY DUP2 DUP2 ADD PUSH1 0x40 MSTORE DUP2 ADD SWAP1 PUSH1 0x2E SWAP2 SWAP1 PUSH1 0x6D JUMP JUMPDEST DUP1 PUSH1 0x80 DUP2 DUP2 MSTORE POP POP POP PUSH1 0x93 JUMP JUMPDEST PUSH0 DUP1 REVERT JUMPDEST PUSH0 DUP2 SWAP1 POP SWAP2 SWAP1 POP JUMP JUMPDEST PUSH1 0x4F DUP2 PUSH1 0x3F JUMP JUMPDEST DUP2 EQ PUSH1 0x58 JUMPI PUSH0 DUP1 REVERT JUMPDEST POP JUMP JUMPDEST PUSH0 DUP2 MLOAD SWAP1 POP PUSH1 0x67 DUP2 PUSH1 0x48 JUMP JUMPDEST SWAP3 SWAP2 POP POP JUMP JUMPDEST PUSH0 PUSH1 0x20 DUP3 DUP5 SUB SLT ISZERO PUSH1 0x7F JUMPI PUSH1 0x7E PUSH1 0x3B JUMP JUMPDEST JUMPDEST PUSH0 PUSH1 0x8A DUP5 DUP3 DUP6 ADD PUSH1 0x5B JUMP JUMPDEST SWAP2 POP POP SWAP3 SWAP2 POP POP JUMP JUMPDEST PUSH1 0x80 MLOAD PUSH2 0x477 PUSH2 0xB9 PUSH0 CODECOPY PUSH0 DUP2 DUP2 PUSH2 0x18B ADD MSTORE DUP2 DUP2 PUSH2 0x1D6 ADD MSTORE PUSH2 0x1FF ADD MSTORE PUSH2 0x477 PUSH0 RETURN INVALID PUSH1 0x80 PUSH1 0x40 MSTORE PUSH1 0x4 CALLDATASIZE LT PUSH2 0x4D JUMPI PUSH0 CALLDATALOAD PUSH1 0xE0 SHR DUP1 PUSH4 0x3D922F90 EQ PUSH2 0x58 JUMPI DUP1 PUSH4 0x8E6B3A7B EQ PUSH2 0x62 JUMPI DUP1 PUSH4 0xC9EC5FF6 EQ PUSH2 0x8C JUMPI DUP1 PUSH4 0xD4EA7FA2 EQ PUSH2 0xC8 JUMPI DUP1 PUSH4 0xDB873A64 EQ PUSH2 0xF2 JUMPI PUSH2 0x54 JUMP JUMPDEST CALLDATASIZE PUSH2 0x54 JUMPI STOP JUMPDEST PUSH0 DUP1 REVERT JUMPDEST PUSH2 0x60 PUSH2 0xFC JUMP JUMPDEST STOP JUMPDEST CALLVALUE DUP1 ISZERO PUSH2 0x6D JUMPI PUSH0 DUP1 REVERT JUMPDEST POP PUSH2 0x76 PUSH2 0x189 JUMP JUMPDEST PUSH1 0x40 MLOAD PUSH2 0x83 SWAP2 SWAP1 PUSH2 0x2BD JUMP JUMPDEST PUSH1 0x40 MLOAD DUP1 SWAP2 SUB SWAP1 RETURN JUMPDEST CALLVALUE DUP1 ISZERO PUSH2 0x97 JUMPI PUSH0 DUP1 REVERT JUMPDEST POP PUSH2 0xB2 PUSH1 0x4 DUP1 CALLDATASIZE SUB DUP2 ADD SWAP1 PUSH2 0xAD SWAP2 SWAP1 PUSH2 0x334 JUMP JUMPDEST PUSH2 0x1AD JUMP JUMPDEST PUSH1 0x40 MLOAD PUSH2 0xBF SWAP2 SWAP1 PUSH2 0x2BD JUMP JUMPDEST PUSH1 0x40 MLOAD DUP1 SWAP2 SUB SWAP1 RETURN JUMPDEST CALLVALUE DUP1 ISZERO PUSH2 0xD3 JUMPI PUSH0 DUP1 REVERT JUMPDEST POP PUSH2 0xDC PUSH2 0x1CD JUMP JUMPDEST PUSH1 0x40 MLOAD PUSH2 0xE9 SWAP2 SWAP1 PUSH2 0x2BD JUMP JUMPDEST PUSH1 0x40 MLOAD DUP1 SWAP2 SUB SWAP1 RETURN JUMPDEST PUSH2 0xFA PUSH2 0x1D4 JUMP JUMPDEST STOP JUMPDEST PUSH32 0x453529DAC6EF979A41D67FBEEABDFAE29903C185F64D77AA690DF9ECA5F1AA60 CALLER CALLVALUE PUSH1 0x40 MLOAD PUSH2 0x12D SWAP3 SWAP2 SWAP1 PUSH2 0x36E JUMP JUMPDEST PUSH1 0x40 MLOAD DUP1 SWAP2 SUB SWAP1 LOG1 CALLVALUE PUSH0 DUP1 CALLER PUSH20 0xFFFFFFFFFFFFFFFFFFFFFFFFFFFFFFFFFFFFFFFF AND PUSH20 0xFFFFFFFFFFFFFFFFFFFFFFFFFFFFFFFFFFFFFFFF AND DUP2 MSTORE PUSH1 0x20 ADD SWAP1 DUP2 MSTORE PUSH1 0x20 ADD PUSH0 KECCAK256 PUSH0 DUP3 DUP3 SLOAD PUSH2 0x180 SWAP2 SWAP1 PUSH2 0x3C2 JUMP JUMPDEST SWAP3 POP POP DUP2 SWAP1 SSTORE POP JUMP JUMPDEST PUSH32 0x0 DUP2 JUMP JUMPDEST PUSH0 DUP2 PUSH20 0xFFFFFFFFFFFFFFFFFFFFFFFFFFFFFFFFFFFFFFFF AND BALANCE SWAP1 POP SWAP2 SWAP1 POP JUMP JUMPDEST PUSH0 SELFBALANCE SWAP1 POP SWAP1 JUMP JUMPDEST PUSH32 0x0 CALLVALUE LT ISZERO PUSH2 0x264 JUMPI CALLVALUE PUSH32 0x0 PUSH2 0x228 SWAP2 SWAP1 PUSH2 0x3F5 JUMP JUMPDEST PUSH1 0x40 MLOAD PUSH32 0x46E7D3B400000000000000000000000000000000000000000000000000000000 DUP2 MSTORE PUSH1 0x4 ADD PUSH2 0x25B SWAP2 SWAP1 PUSH2 0x2BD JUMP JUMPDEST PUSH1 0x40 MLOAD DUP1 SWAP2 SUB SWAP1 REVERT JUMPDEST PUSH2 0x26C PUSH2 0xFC JUMP JUMPDEST PUSH32 0xD634350698EDFD8F4C073CD4F18000B446026398544CB9BCD0C5A1827BCF6C04 CALLER PUSH1 0x40 MLOAD PUSH2 0x29B SWAP2 SWAP1 PUSH2 0x428 JUMP JUMPDEST PUSH1 0x40 MLOAD DUP1 SWAP2 SUB SWAP1 LOG1 JUMP JUMPDEST PUSH0 DUP2 SWAP1 POP SWAP2 SWAP1 POP JUMP JUMPDEST PUSH2 0x2B7 DUP2 PUSH2 0x2A5 JUMP JUMPDEST DUP3 MSTORE POP POP JUMP JUMPDEST PUSH0 PUSH1 0x20 DUP3 ADD SWAP1 POP PUSH2 0x2D0 PUSH0 DUP4 ADD DUP5 PUSH2 0x2AE JUMP JUMPDEST SWAP3 SWAP2 POP POP JUMP JUMPDEST PUSH0 DUP1 REVERT JUMPDEST PUSH0 PUSH20 0xFFFFFFFFFFFFFFFFFFFFFFFFFFFFFFFFFFFFFFFF DUP3 AND SWAP1 POP SWAP2 SWAP1 POP JUMP JUMPDEST PUSH0 PUSH2 0x303 DUP3 PUSH2 0x2DA JUMP JUMPDEST SWAP1 POP SWAP2 SWAP1 POP JUMP JUMPDEST PUSH2 0x313 DUP2 PUSH2 0x2F9 JUMP JUMPDEST DUP2 EQ PUSH2 0x31D JUMPI PUSH0 DUP1 REVERT JUMPDEST POP JUMP JUMPDEST PUSH0 DUP2 CALLDATALOAD SWAP1 POP PUSH2 0x32E DUP2 PUSH2 0x30A JUMP JUMPDEST SWAP3 SWAP2 POP POP JUMP JUMPDEST PUSH0 PUSH1 0x20 DUP3 DUP5 SUB SLT ISZERO PUSH2 0x349 JUMPI PUSH2 0x348 PUSH2 0x2D6 JUMP JUMPDEST JUMPDEST PUSH0 PUSH2 0x356 DUP5 DUP3 DUP6 ADD PUSH2 0x320 JUMP JUMPDEST SWAP2 POP POP SWAP3 SWAP2 POP POP JUMP JUMPDEST PUSH2 0x368 DUP2 PUSH2 0x2F9 JUMP JUMPDEST DUP3 MSTORE POP POP JUMP JUMPDEST PUSH0 PUSH1 0x40 DUP3 ADD SWAP1 POP PUSH2 0x381 PUSH0 DUP4 ADD DUP6 PUSH2 0x35F JUMP JUMPDEST PUSH2 0x38E PUSH1 0x20 DUP4 ADD DUP5 PUSH2 0x2AE JUMP JUMPDEST SWAP4 SWAP3 POP POP POP JUMP JUMPDEST PUSH32 0x4E487B7100000000000000000000000000000000000000000000000000000000 PUSH0 MSTORE PUSH1 0x11 PUSH1 0x4 MSTORE PUSH1 0x24 PUSH0 REVERT JUMPDEST PUSH0 PUSH2 0x3CC DUP3 PUSH2 0x2A5 JUMP JUMPDEST SWAP2 POP PUSH2 0x3D7 DUP4 PUSH2 0x2A5 JUMP JUMPDEST SWAP3 POP DUP3 DUP3 ADD SWAP1 POP DUP1 DUP3 GT ISZERO PUSH2 0x3EF JUMPI PUSH2 0x3EE PUSH2 0x395 JUMP JUMPDEST JUMPDEST SWAP3 SWAP2 POP POP JUMP JUMPDEST PUSH0 PUSH2 0x3FF DUP3 PUSH2 0x2A5 JUMP JUMPDEST SWAP2 POP PUSH2 0x40A DUP4 PUSH2 0x2A5 JUMP JUMPDEST SWAP3 POP DUP3 DUP3 SUB SWAP1 POP DUP2 DUP2 GT ISZERO PUSH2 0x422 JUMPI PUSH2 0x421 PUSH2 0x395 JUMP JUMPDEST JUMPDEST SWAP3 SWAP2 POP POP JUMP JUMPDEST PUSH0 PUSH1 0x20 DUP3 ADD SWAP1 POP PUSH2 0x43B PUSH0 DUP4 ADD DUP5 PUSH2 0x35F JUMP JUMPDEST SWAP3 SWAP2 POP POP JUMP INVALID LOG2 PUSH5 0x6970667358 0x22 SLT KECCAK256 CALLDATALOAD DUP13 0xA5 DUP3 0xD3 SWAP1 0xE7 EXTCODEHASH GASLIMIT 0xBF PUSH12 0x9760A6DFC2228C07F2445032 PUSH16 0xDADBE8CEE6D3806464736F6C63430008 BYTE STOP CALLER "
		},
		"gasEstimates": {
			"creation": {
				"codeDepositCost": "228600",
				"executionCost": "infinite",
				"totalCost": "infinite"
			},
			"external": {
				"balanceContrato()": "378",
				"balanceDeUnaAddress(address)": "3269",
				"cantidadMinimaParaAgradecimiento()": "infinite",
				"depositar()": "infinite",
				"depositoGeneroso()": "infinite"
			}
		},
		"methodIdentifiers": {
			"balanceContrato()": "d4ea7fa2",
			"balanceDeUnaAddress(address)": "c9ec5ff6",
			"cantidadMinimaParaAgradecimiento()": "8e6b3a7b",
			"depositar()": "3d922f90",
			"depositoGeneroso()": "db873a64"
		}
	},
	"abi": [
		{
			"inputs": [
				{
					"internalType": "uint256",
					"name": "unaCantidadMinima",
					"type": "uint256"
				}
			],
			"stateMutability": "nonpayable",
			"type": "constructor"
		},
		{
			"inputs": [
				{
					"internalType": "uint256",
					"name": "cantidadFaltante",
					"type": "uint256"
				}
			],
			"name": "FaltaPlata",
			"type": "error"
		},
		{
			"anonymous": false,
			"inputs": [
				{
					"indexed": false,
					"internalType": "address",
					"name": "depositante",
					"type": "address"
				}
			],
			"name": "Agradecimiento",
			"type": "event"
		},
		{
			"anonymous": false,
			"inputs": [
				{
					"indexed": false,
					"internalType": "address",
					"name": "depositante",
					"type": "address"
				},
				{
					"indexed": false,
					"internalType": "uint256",
					"name": "monto",
					"type": "uint256"
				}
			],
			"name": "Deposito",
			"type": "event"
		},
		{
			"inputs": [],
			"name": "balanceContrato",
			"outputs": [
				{
					"internalType": "uint256",
					"name": "",
					"type": "uint256"
				}
			],
			"stateMutability": "view",
			"type": "function"
		},
		{
			"inputs": [
				{
					"internalType": "address",
					"name": "unaAddress",
					"type": "address"
				}
			],
			"name": "balanceDeUnaAddress",
			"outputs": [
				{
					"internalType": "uint256",
					"name": "",
					"type": "uint256"
				}
			],
			"stateMutability": "view",
			"type": "function"
		},
		{
			"inputs": [],
			"name": "cantidadMinimaParaAgradecimiento",
			"outputs": [
				{
					"internalType": "uint256",
					"name": "",
					"type": "uint256"
				}
			],
			"stateMutability": "view",
			"type": "function"
		},
		{
			"inputs": [],
			"name": "depositar",
			"outputs": [],
			"stateMutability": "payable",
			"type": "function"
		},
		{
			"inputs": [],
			"name": "depositoGeneroso",
			"outputs": [],
			"stateMutability": "payable",
			"type": "function"
		},
		{
			"stateMutability": "payable",
			"type": "receive"
		}
	]
}