{"abi":[{"type":"constructor","inputs":[{"name":"unaCantidadMinima","type":"uint256","internalType":"uint256"}],"stateMutability":"nonpayable"},{"type":"receive","stateMutability":"payable"},{"type":"function","name":"balanceContrato","inputs":[],"outputs":[{"name":"","type":"uint256","internalType":"uint256"}],"stateMutability":"view"},{"type":"function","name":"balanceDeUnaAddress","inputs":[{"name":"unaAddress","type":"address","internalType":"address"}],"outputs":[{"name":"","type":"uint256","internalType":"uint256"}],"stateMutability":"view"},{"type":"function","name":"cantidadMinimaParaAgradecimiento","inputs":[],"outputs":[{"name":"","type":"uint256","internalType":"uint256"}],"stateMutability":"view"},{"type":"function","name":"depositar","inputs":[],"outputs":[],"stateMutability":"payable"},{"type":"function","name":"depositoGeneroso","inputs":[],"outputs":[],"stateMutability":"payable"},{"type":"event","name":"Agradecimiento","inputs":[{"name":"depositante","type":"address","indexed":false,"internalType":"address"}],"anonymous":false},{"type":"event","name":"Deposito","inputs":[{"name":"depositante","type":"address","indexed":false,"internalType":"address"},{"name":"monto","type":"uint256","indexed":false,"internalType":"uint256"}],"anonymous":false},{"type":"error","name":"FaltaPlata","inputs":[{"name":"cantidadFaltante","type":"uint256","internalType":"uint256"}]}],"bytecode":{"object":"0x60a0604052348015600f57600080fd5b5060405161031a38038061031a833981016040819052602c916033565b608052604b565b600060208284031215604457600080fd5b5051919050565b6080516102a76100736000396000818160760152818161014d015261017901526102a76000f3fe60806040526004361061004e5760003560e01c80633d922f901461005a5780638e6b3a7b14610064578063c9ec5ff6146100aa578063d4ea7fa2146100d2578063db873a64146100e557600080fd5b3661005557005b600080fd5b6100626100ed565b005b34801561007057600080fd5b506100987f000000000000000000000000000000000000000000000000000000000000000081565b60405190815260200160405180910390f35b3480156100b657600080fd5b506100986100c53660046101ff565b6001600160a01b03163190565b3480156100de57600080fd5b5047610098565b61006261014b565b604080513381523460208201527f453529dac6ef979a41d67fbeeabdfae29903c185f64d77aa690df9eca5f1aa60910160405180910390a13360009081526020819052604081208054349290610144908490610245565b9091555050565b7f00000000000000000000000000000000000000000000000000000000000000003410156101c25761019d347f000000000000000000000000000000000000000000000000000000000000000061025e565b6040516311b9f4ed60e21b81526004016101b991815260200190565b60405180910390fd5b6101ca6100ed565b6040513381527fd634350698edfd8f4c073cd4f18000b446026398544cb9bcd0c5a1827bcf6c049060200160405180910390a1565b60006020828403121561021157600080fd5b81356001600160a01b038116811461022857600080fd5b9392505050565b634e487b7160e01b600052601160045260246000fd5b808201808211156102585761025861022f565b92915050565b818103818111156102585761025861022f56fea26469706673582212209be441a002d294a8756739a65372bb21a2b93f5f28dca2904532aa88266bcef664736f6c634300081a0033","linkReferences":{}},"methodIdentifiers":{"balanceContrato()":"d4ea7fa2","balanceDeUnaAddress(address)":"c9ec5ff6","cantidadMinimaParaAgradecimiento()":"8e6b3a7b","depositar()":"3d922f90","depositoGeneroso()":"db873a64"},"id":1}